{
  "contractName": "Supplychain",
  "abi": [
    {
      "inputs": [],
      "payable": false,
      "stateMutability": "nonpayable",
      "type": "constructor"
    },
    {
      "anonymous": false,
      "inputs": [
        {
          "indexed": false,
          "internalType": "uint256",
          "name": "id",
          "type": "uint256"
        },
        {
          "indexed": false,
          "internalType": "string",
          "name": "name",
          "type": "string"
        },
        {
          "indexed": false,
          "internalType": "string",
          "name": "ptype",
          "type": "string"
        },
        {
          "indexed": false,
          "internalType": "string",
          "name": "brand",
          "type": "string"
        },
        {
          "indexed": false,
          "internalType": "string",
          "name": "manudate",
          "type": "string"
        },
        {
          "indexed": false,
          "internalType": "string",
          "name": "expdate",
          "type": "string"
        },
        {
          "indexed": false,
          "internalType": "uint256",
          "name": "price",
          "type": "uint256"
        },
        {
          "indexed": false,
          "internalType": "string",
          "name": "ownerName",
          "type": "string"
        },
        {
          "indexed": false,
          "internalType": "address payable",
          "name": "owner",
          "type": "address"
        },
        {
          "indexed": false,
          "internalType": "bool",
          "name": "purchased",
          "type": "bool"
        }
      ],
      "name": "ProductCreated",
      "type": "event"
    },
    {
      "anonymous": false,
      "inputs": [
        {
          "indexed": false,
          "internalType": "uint256",
          "name": "id",
          "type": "uint256"
        },
        {
          "indexed": false,
          "internalType": "string",
          "name": "name",
          "type": "string"
        },
        {
          "indexed": false,
          "internalType": "uint256",
          "name": "price",
          "type": "uint256"
        },
        {
          "indexed": false,
          "internalType": "address payable",
          "name": "owner",
          "type": "address"
        },
        {
          "indexed": false,
          "internalType": "bool",
          "name": "purchased",
          "type": "bool"
        }
      ],
      "name": "ProductPurchased",
      "type": "event"
    },
    {
      "constant": true,
      "inputs": [
        {
          "internalType": "uint256",
          "name": "",
          "type": "uint256"
        },
        {
          "internalType": "uint256",
          "name": "",
          "type": "uint256"
        }
      ],
      "name": "_ownerNames",
      "outputs": [
        {
          "internalType": "string",
          "name": "",
          "type": "string"
        }
      ],
      "payable": false,
      "stateMutability": "view",
      "type": "function"
    },
    {
      "constant": true,
      "inputs": [],
      "name": "name",
      "outputs": [
        {
          "internalType": "string",
          "name": "",
          "type": "string"
        }
      ],
      "payable": false,
      "stateMutability": "view",
      "type": "function"
    },
    {
      "constant": true,
      "inputs": [],
      "name": "ownerCount",
      "outputs": [
        {
          "internalType": "uint256",
          "name": "",
          "type": "uint256"
        }
      ],
      "payable": false,
      "stateMutability": "view",
      "type": "function"
    },
    {
      "constant": true,
      "inputs": [],
      "name": "productCount",
      "outputs": [
        {
          "internalType": "uint256",
          "name": "",
          "type": "uint256"
        }
      ],
      "payable": false,
      "stateMutability": "view",
      "type": "function"
    },
    {
      "constant": true,
      "inputs": [
        {
          "internalType": "uint256",
          "name": "",
          "type": "uint256"
        }
      ],
      "name": "products",
      "outputs": [
        {
          "internalType": "uint256",
          "name": "id",
          "type": "uint256"
        },
        {
          "internalType": "string",
          "name": "name",
          "type": "string"
        },
        {
          "internalType": "string",
          "name": "ptype",
          "type": "string"
        },
        {
          "internalType": "string",
          "name": "brand",
          "type": "string"
        },
        {
          "internalType": "string",
          "name": "manudate",
          "type": "string"
        },
        {
          "internalType": "string",
          "name": "expdate",
          "type": "string"
        },
        {
          "internalType": "uint256",
          "name": "price",
          "type": "uint256"
        },
        {
          "internalType": "string",
          "name": "ownerName",
          "type": "string"
        },
        {
          "internalType": "address payable",
          "name": "owner",
          "type": "address"
        },
        {
          "internalType": "bool",
          "name": "purchased",
          "type": "bool"
        }
      ],
      "payable": false,
      "stateMutability": "view",
      "type": "function"
    },
    {
      "constant": true,
      "inputs": [],
      "name": "purchaseCount",
      "outputs": [
        {
          "internalType": "uint256",
          "name": "",
          "type": "uint256"
        }
      ],
      "payable": false,
      "stateMutability": "view",
      "type": "function"
    },
    {
      "constant": true,
      "inputs": [
        {
          "internalType": "uint256",
          "name": "",
          "type": "uint256"
        }
      ],
      "name": "purchasedProducts",
      "outputs": [
        {
          "internalType": "uint256",
          "name": "id",
          "type": "uint256"
        },
        {
          "internalType": "string",
          "name": "name",
          "type": "string"
        },
        {
          "internalType": "string",
          "name": "ptype",
          "type": "string"
        },
        {
          "internalType": "string",
          "name": "brand",
          "type": "string"
        },
        {
          "internalType": "string",
          "name": "manudate",
          "type": "string"
        },
        {
          "internalType": "string",
          "name": "expdate",
          "type": "string"
        },
        {
          "internalType": "uint256",
          "name": "price",
          "type": "uint256"
        },
        {
          "internalType": "string",
          "name": "ownerName",
          "type": "string"
        },
        {
          "internalType": "address payable",
          "name": "owner",
          "type": "address"
        },
        {
          "internalType": "bool",
          "name": "purchased",
          "type": "bool"
        }
      ],
      "payable": false,
      "stateMutability": "view",
      "type": "function"
    },
    {
      "constant": false,
      "inputs": [
        {
          "internalType": "string",
          "name": "_name",
          "type": "string"
        },
        {
          "internalType": "string",
          "name": "_type",
          "type": "string"
        },
        {
          "internalType": "string",
          "name": "_brand",
          "type": "string"
        },
        {
          "internalType": "string",
          "name": "_manudate",
          "type": "string"
        },
        {
          "internalType": "string",
          "name": "_expdate",
          "type": "string"
        },
        {
          "internalType": "uint256",
          "name": "_price",
          "type": "uint256"
        },
        {
          "internalType": "string",
          "name": "_ownerName",
          "type": "string"
        }
      ],
      "name": "createProduct",
      "outputs": [],
      "payable": false,
      "stateMutability": "nonpayable",
      "type": "function"
    },
    {
      "constant": false,
      "inputs": [
        {
          "internalType": "uint256",
          "name": "_id",
          "type": "uint256"
        },
        {
          "internalType": "string",
          "name": "username",
          "type": "string"
        }
      ],
      "name": "purchaseProduct",
      "outputs": [],
      "payable": true,
      "stateMutability": "payable",
      "type": "function"
    }
  ],
  "bytecode": "0x60806040526000600155600060025560006003553480156200002057600080fd5b506040518060400160405280601081526020017f466f6f6420537570706c79636861696e00000000000000000000000000000000815250600090805190602001906200006e92919062000075565b5062000124565b828054600181600116156101000203166002900490600052602060002090601f016020900481019282601f10620000b857805160ff1916838001178555620000e9565b82800160010185558215620000e9579182015b82811115620000e8578251825591602001919060010190620000cb565b5b509050620000f89190620000fc565b5090565b6200012191905b808211156200011d57600081600090555060010162000103565b5090565b90565b611d5780620001346000396000f3fe6080604052600436106100865760003560e01c80637acc0b20116100595780637acc0b20146101355780638af342461461017b578063904c607a146101975780639af54a33146101dd578063e0f6ef871461021a57610086565b806306fdde031461008b5780630db02622146100b65780632b85ed9c146100e15780633beaedff1461010c575b600080fd5b34801561009757600080fd5b506100a0610245565b6040516100ad91906119bf565b60405180910390f35b3480156100c257600080fd5b506100cb6102e3565b6040516100d891906119e1565b60405180910390f35b3480156100ed57600080fd5b506100f66102e9565b60405161010391906119e1565b60405180910390f35b34801561011857600080fd5b50610133600480360361012e9190810190611739565b6102ef565b005b34801561014157600080fd5b5061015c60048036036101579190810190611867565b610575565b6040516101729a99989796959493929190611ac2565b60405180910390f35b61019560048036036101909190810190611890565b610986565b005b3480156101a357600080fd5b506101be60048036036101b99190810190611867565b6110da565b6040516101d49a99989796959493929190611ac2565b60405180910390f35b3480156101e957600080fd5b5061020460048036036101ff91908101906118e4565b6114eb565b60405161021191906119bf565b60405180910390f35b34801561022657600080fd5b5061022f6115ba565b60405161023c91906119e1565b60405180910390f35b60008054600181600116156101000203166002900480601f0160208091040260200160405190810160405280929190818152602001828054600181600116156101000203166002900480156102db5780601f106102b0576101008083540402835291602001916102db565b820191906000526020600020905b8154815290600101906020018083116102be57829003601f168201915b505050505081565b60035481565b60025481565b6000600381905550600087511161030557600080fd5b600086511161031357600080fd5b600085511161032157600080fd5b600084511161032f57600080fd5b600083511161033d57600080fd5b600081511161034b57600080fd5b6000821161035857600080fd5b60016000815480929190600101919050555060036000815480929190600101919050555060405180610140016040528060015481526020018881526020018781526020018681526020018581526020018481526020018381526020018281526020013373ffffffffffffffffffffffffffffffffffffffff168152602001600015158152506005600060015481526020019081526020016000206000820151816000015560208201518160010190805190602001906104189291906115c0565b5060408201518160020190805190602001906104359291906115c0565b5060608201518160030190805190602001906104529291906115c0565b50608082015181600401908051906020019061046f9291906115c0565b5060a082015181600501908051906020019061048c9291906115c0565b5060c0820151816006015560e08201518160070190805190602001906104b39291906115c0565b506101008201518160080160006101000a81548173ffffffffffffffffffffffffffffffffffffffff021916908373ffffffffffffffffffffffffffffffffffffffff1602179055506101208201518160080160146101000a81548160ff0219169083151502179055509050507f3a2f587791eab6a779ad77bd80beb3942ab391e261fedd9c8759900f9623d976600154888888888888883360006040516105649a999897969594939291906119fc565b60405180910390a150505050505050565b6005602052806000526040600020600091509050806000015490806001018054600181600116156101000203166002900480601f0160208091040260200160405190810160405280929190818152602001828054600181600116156101000203166002900480156106275780601f106105fc57610100808354040283529160200191610627565b820191906000526020600020905b81548152906001019060200180831161060a57829003601f168201915b505050505090806002018054600181600116156101000203166002900480601f0160208091040260200160405190810160405280929190818152602001828054600181600116156101000203166002900480156106c55780601f1061069a576101008083540402835291602001916106c5565b820191906000526020600020905b8154815290600101906020018083116106a857829003601f168201915b505050505090806003018054600181600116156101000203166002900480601f0160208091040260200160405190810160405280929190818152602001828054600181600116156101000203166002900480156107635780601f1061073857610100808354040283529160200191610763565b820191906000526020600020905b81548152906001019060200180831161074657829003601f168201915b505050505090806004018054600181600116156101000203166002900480601f0160208091040260200160405190810160405280929190818152602001828054600181600116156101000203166002900480156108015780601f106107d657610100808354040283529160200191610801565b820191906000526020600020905b8154815290600101906020018083116107e457829003601f168201915b505050505090806005018054600181600116156101000203166002900480601f01602080910402602001604051908101604052809291908181526020018280546001816001161561010002031660029004801561089f5780601f106108745761010080835404028352916020019161089f565b820191906000526020600020905b81548152906001019060200180831161088257829003601f168201915b505050505090806006015490806007018054600181600116156101000203166002900480601f0160208091040260200160405190810160405280929190818152602001828054600181600116156101000203166002900480156109435780601f1061091857610100808354040283529160200191610943565b820191906000526020600020905b81548152906001019060200180831161092657829003601f168201915b5050505050908060080160009054906101000a900473ffffffffffffffffffffffffffffffffffffffff16908060080160149054906101000a900460ff1690508a565b61098e611640565b600560008481526020019081526020016000206040518061014001604052908160008201548152602001600182018054600181600116156101000203166002900480601f016020809104026020016040519081016040528092919081815260200182805460018160011615610100020316600290048015610a505780601f10610a2557610100808354040283529160200191610a50565b820191906000526020600020905b815481529060010190602001808311610a3357829003601f168201915b50505050508152602001600282018054600181600116156101000203166002900480601f016020809104026020016040519081016040528092919081815260200182805460018160011615610100020316600290048015610af25780601f10610ac757610100808354040283529160200191610af2565b820191906000526020600020905b815481529060010190602001808311610ad557829003601f168201915b50505050508152602001600382018054600181600116156101000203166002900480601f016020809104026020016040519081016040528092919081815260200182805460018160011615610100020316600290048015610b945780601f10610b6957610100808354040283529160200191610b94565b820191906000526020600020905b815481529060010190602001808311610b7757829003601f168201915b50505050508152602001600482018054600181600116156101000203166002900480601f016020809104026020016040519081016040528092919081815260200182805460018160011615610100020316600290048015610c365780601f10610c0b57610100808354040283529160200191610c36565b820191906000526020600020905b815481529060010190602001808311610c1957829003601f168201915b50505050508152602001600582018054600181600116156101000203166002900480601f016020809104026020016040519081016040528092919081815260200182805460018160011615610100020316600290048015610cd85780601f10610cad57610100808354040283529160200191610cd8565b820191906000526020600020905b815481529060010190602001808311610cbb57829003601f168201915b5050505050815260200160068201548152602001600782018054600181600116156101000203166002900480601f016020809104026020016040519081016040528092919081815260200182805460018160011615610100020316600290048015610d845780601f10610d5957610100808354040283529160200191610d84565b820191906000526020600020905b815481529060010190602001808311610d6757829003601f168201915b505050505081526020016008820160009054906101000a900473ffffffffffffffffffffffffffffffffffffffff1673ffffffffffffffffffffffffffffffffffffffff1673ffffffffffffffffffffffffffffffffffffffff1681526020016008820160149054906101000a900460ff16151515158152505090506000816101000151905060008260000151118015610e245750600154826000015111155b610e2d57600080fd5b8160c00151341015610e3e57600080fd5b81610120015115610e4e57600080fd5b3373ffffffffffffffffffffffffffffffffffffffff168173ffffffffffffffffffffffffffffffffffffffff161415610e8757600080fd5b3382610100019073ffffffffffffffffffffffffffffffffffffffff16908173ffffffffffffffffffffffffffffffffffffffff1681525050600360008154809291906001019190505550600182610120019015159081151581525050828260e0018190525060026000815480929190600101919050555081600660006002548152602001908152602001600020600082015181600001556020820151816001019080519060200190610f3b9291906115c0565b506040820151816002019080519060200190610f589291906115c0565b506060820151816003019080519060200190610f759291906115c0565b506080820151816004019080519060200190610f929291906115c0565b5060a0820151816005019080519060200190610faf9291906115c0565b5060c0820151816006015560e0820151816007019080519060200190610fd69291906115c0565b506101008201518160080160006101000a81548173ffffffffffffffffffffffffffffffffffffffff021916908373ffffffffffffffffffffffffffffffffffffffff1602179055506101208201518160080160146101000a81548160ff0219169083151502179055509050508073ffffffffffffffffffffffffffffffffffffffff166108fc349081150290604051600060405180830381858888f19350505050158015611089573d6000803e3d6000fd5b507f79558d0d7d4d900e2f15c4cc0a665f1acdbe415e44de900ecdd1e5bf12b56f4e60015483602001518460c001513360016040516110cc959493929190611b88565b60405180910390a150505050565b6006602052806000526040600020600091509050806000015490806001018054600181600116156101000203166002900480601f01602080910402602001604051908101604052809291908181526020018280546001816001161561010002031660029004801561118c5780601f106111615761010080835404028352916020019161118c565b820191906000526020600020905b81548152906001019060200180831161116f57829003601f168201915b505050505090806002018054600181600116156101000203166002900480601f01602080910402602001604051908101604052809291908181526020018280546001816001161561010002031660029004801561122a5780601f106111ff5761010080835404028352916020019161122a565b820191906000526020600020905b81548152906001019060200180831161120d57829003601f168201915b505050505090806003018054600181600116156101000203166002900480601f0160208091040260200160405190810160405280929190818152602001828054600181600116156101000203166002900480156112c85780601f1061129d576101008083540402835291602001916112c8565b820191906000526020600020905b8154815290600101906020018083116112ab57829003601f168201915b505050505090806004018054600181600116156101000203166002900480601f0160208091040260200160405190810160405280929190818152602001828054600181600116156101000203166002900480156113665780601f1061133b57610100808354040283529160200191611366565b820191906000526020600020905b81548152906001019060200180831161134957829003601f168201915b505050505090806005018054600181600116156101000203166002900480601f0160208091040260200160405190810160405280929190818152602001828054600181600116156101000203166002900480156114045780601f106113d957610100808354040283529160200191611404565b820191906000526020600020905b8154815290600101906020018083116113e757829003601f168201915b505050505090806006015490806007018054600181600116156101000203166002900480601f0160208091040260200160405190810160405280929190818152602001828054600181600116156101000203166002900480156114a85780601f1061147d576101008083540402835291602001916114a8565b820191906000526020600020905b81548152906001019060200180831161148b57829003601f168201915b5050505050908060080160009054906101000a900473ffffffffffffffffffffffffffffffffffffffff16908060080160149054906101000a900460ff1690508a565b600482815481106114f857fe5b90600052602060002001818154811061150d57fe5b90600052602060002001600091509150508054600181600116156101000203166002900480601f0160208091040260200160405190810160405280929190818152602001828054600181600116156101000203166002900480156115b25780601f10611587576101008083540402835291602001916115b2565b820191906000526020600020905b81548152906001019060200180831161159557829003601f168201915b505050505081565b60015481565b828054600181600116156101000203166002900490600052602060002090601f016020900481019282601f1061160157805160ff191683800117855561162f565b8280016001018555821561162f579182015b8281111561162e578251825591602001919060010190611613565b5b50905061163c91906116ab565b5090565b6040518061014001604052806000815260200160608152602001606081526020016060815260200160608152602001606081526020016000815260200160608152602001600073ffffffffffffffffffffffffffffffffffffffff1681526020016000151581525090565b6116cd91905b808211156116c95760008160009055506001016116b1565b5090565b90565b600082601f8301126116e157600080fd5b81356116f46116ef82611c0f565b611be2565b9150808252602083016020830185838301111561171057600080fd5b61171b838284611caa565b50505092915050565b60008135905061173381611cfd565b92915050565b600080600080600080600060e0888a03121561175457600080fd5b600088013567ffffffffffffffff81111561176e57600080fd5b61177a8a828b016116d0565b975050602088013567ffffffffffffffff81111561179757600080fd5b6117a38a828b016116d0565b965050604088013567ffffffffffffffff8111156117c057600080fd5b6117cc8a828b016116d0565b955050606088013567ffffffffffffffff8111156117e957600080fd5b6117f58a828b016116d0565b945050608088013567ffffffffffffffff81111561181257600080fd5b61181e8a828b016116d0565b93505060a061182f8a828b01611724565b92505060c088013567ffffffffffffffff81111561184c57600080fd5b6118588a828b016116d0565b91505092959891949750929550565b60006020828403121561187957600080fd5b600061188784828501611724565b91505092915050565b600080604083850312156118a357600080fd5b60006118b185828601611724565b925050602083013567ffffffffffffffff8111156118ce57600080fd5b6118da858286016116d0565b9150509250929050565b600080604083850312156118f757600080fd5b600061190585828601611724565b925050602061191685828601611724565b9150509250929050565b61192981611c62565b82525050565b61193881611c74565b82525050565b600061194982611c46565b6119538185611c51565b9350611963818560208601611cb9565b61196c81611cec565b840191505092915050565b600061198282611c3b565b61198c8185611c51565b935061199c818560208601611cb9565b6119a581611cec565b840191505092915050565b6119b981611ca0565b82525050565b600060208201905081810360008301526119d98184611977565b905092915050565b60006020820190506119f660008301846119b0565b92915050565b600061014082019050611a12600083018d6119b0565b8181036020830152611a24818c61193e565b90508181036040830152611a38818b61193e565b90508181036060830152611a4c818a61193e565b90508181036080830152611a60818961193e565b905081810360a0830152611a74818861193e565b9050611a8360c08301876119b0565b81810360e0830152611a95818661193e565b9050611aa5610100830185611920565b611ab361012083018461192f565b9b9a5050505050505050505050565b600061014082019050611ad8600083018d6119b0565b8181036020830152611aea818c611977565b90508181036040830152611afe818b611977565b90508181036060830152611b12818a611977565b90508181036080830152611b268189611977565b905081810360a0830152611b3a8188611977565b9050611b4960c08301876119b0565b81810360e0830152611b5b8186611977565b9050611b6b610100830185611920565b611b7961012083018461192f565b9b9a5050505050505050505050565b600060a082019050611b9d60008301886119b0565b8181036020830152611baf8187611977565b9050611bbe60408301866119b0565b611bcb6060830185611920565b611bd8608083018461192f565b9695505050505050565b6000604051905081810181811067ffffffffffffffff82111715611c0557600080fd5b8060405250919050565b600067ffffffffffffffff821115611c2657600080fd5b601f19601f8301169050602081019050919050565b600081519050919050565b600081519050919050565b600082825260208201905092915050565b6000611c6d82611c80565b9050919050565b60008115159050919050565b600073ffffffffffffffffffffffffffffffffffffffff82169050919050565b6000819050919050565b82818337600083830152505050565b60005b83811015611cd7578082015181840152602081019050611cbc565b83811115611ce6576000848401525b50505050565b6000601f19601f8301169050919050565b611d0681611ca0565b8114611d1157600080fd5b5056fea365627a7a72315820a5fa1bc6c588f575f393cca60f7dbdd0b363df51d1730ab7690eaf143a5081296c6578706572696d656e74616cf564736f6c63430005100040",
  "source": "pragma solidity ^0.5.0;\npragma experimental ABIEncoderV2;\ncontract Supplychain {\n    string public name;\n    uint public productCount = 0;\n    uint public purchaseCount=0;\n    uint public ownerCount=0;\n    string[][] public _ownerNames; \n    mapping(uint => Product) public products;\n    mapping(uint => Product) public purchasedProducts;\n\n    struct Product {\n        uint id;\n        string name;\n        string ptype;\n        string brand;\n        string manudate;\n        string expdate;\n        uint price;\n        string ownerName;\n        address payable owner;\n        bool purchased;\n    }\n\n    event ProductCreated(\n        uint id,\n        string name,\n        string ptype,\n        string brand,\n        string manudate,\n        string expdate,\n        uint price,\n        string ownerName,\n        address payable owner,\n        bool purchased\n    );\n\n    event ProductPurchased(\n        uint id,\n        string name,\n        uint price,\n        address payable owner,\n        bool purchased\n    );\n\n    constructor() public {\n        name = \"Food Supplychain\";\n    }\n\n    function createProduct(string memory _name, string memory _type, string memory _brand, string memory _manudate, string memory _expdate, uint _price, string memory _ownerName) public {\n             ownerCount=0;\n        // Require a valid name\n        require(bytes(_name).length > 0);\n        // Require a valid type\n        require(bytes(_type).length > 0);\n        // Require a valid brand\n        require(bytes(_brand).length > 0);\n        // Require a valid date\n        require(bytes(_manudate).length > 0);\n        // Require a valid date\n        require(bytes(_expdate).length > 0);\n        // Require a ownername\n        require(bytes(_ownerName).length > 0);\n        // Require a valid price\n        require(_price > 0);\n        // Increment product count\n        productCount ++;\n       ownerCount++;\n        //_ownerNames[productCount][ownerCount]=_ownerName;\n        \n        // Create the product\n        products[productCount] = Product(productCount, _name, _type, _brand, _manudate, _expdate, _price, _ownerName, msg.sender, false);\n        // Trigger an event\n        emit ProductCreated(productCount, _name, _type, _brand, _manudate, _expdate, _price, _ownerName, msg.sender, false);\n    }\n\n    function purchaseProduct(uint _id, string memory username) public payable {\n        // Fetch the product\n        Product memory _product = products[_id];\n        // Fetch the owner\n        address payable _seller = _product.owner;\n        // Make sure the product has a valid id\n        require(_product.id > 0 && _product.id <= productCount);\n        // Require that there is enough Ether in the transaction\n        require(msg.value >= _product.price);\n        // Require that the product has not been purchased already\n        require(!_product.purchased);\n        // Require that the buyer is not the seller\n        require(_seller != msg.sender);\n\n        // Transfer ownership to the buyer\n        _product.owner = msg.sender;\n        ownerCount++;\n      \n        // Mark as purchased\n        _product.purchased = true;\n        //update owner\n        _product.ownerName=username;\n\n        //update purchase date\n       // _product.manudate=block.timestamp;\n        // Update the product\n        purchaseCount++;\n        purchasedProducts[purchaseCount] = _product;\n        // Pay the seller by sending them Ether\n        address(_seller).transfer(msg.value);\n        // Trigger an event\n        emit ProductPurchased(productCount, _product.name, _product.price, msg.sender, true);\n    }\n}\n",
  "sourcePath": "E:\\Project\\Food Tracking\\src\\contracts\\Supplychain.sol",
  "compiler": {
    "name": "solc",
    "version": "0.5.16+commit.9c3226ce.Emscripten.clang"
  },
  "schemaVersion": "3.4.2",
  "updatedAt": "2021-08-20T05:35:56.608Z",
  "devdoc": {
    "methods": {}
  },
  "userdoc": {
    "methods": {}
  }
}