{
  "contractName": "UserRegistration",
  "abi": [
    {
      "inputs": [],
      "payable": false,
      "stateMutability": "nonpayable",
      "type": "constructor"
    },
    {
      "anonymous": false,
      "inputs": [
        {
          "indexed": false,
          "internalType": "uint256",
          "name": "id",
          "type": "uint256"
        },
        {
          "indexed": false,
          "internalType": "string",
          "name": "name",
          "type": "string"
        },
        {
          "indexed": false,
          "internalType": "string",
          "name": "compname",
          "type": "string"
        },
        {
          "indexed": false,
          "internalType": "string",
          "name": "username",
          "type": "string"
        },
        {
          "indexed": false,
          "internalType": "string",
          "name": "password",
          "type": "string"
        },
        {
          "indexed": false,
          "internalType": "string",
          "name": "role",
          "type": "string"
        },
        {
          "indexed": false,
          "internalType": "address payable",
          "name": "owner",
          "type": "address"
        }
      ],
      "name": "UserCreated",
      "type": "event"
    },
    {
      "anonymous": false,
      "inputs": [
        {
          "indexed": false,
          "internalType": "string",
          "name": "username",
          "type": "string"
        },
        {
          "indexed": false,
          "internalType": "string",
          "name": "password",
          "type": "string"
        },
        {
          "indexed": false,
          "internalType": "string",
          "name": "role",
          "type": "string"
        },
        {
          "components": [
            {
              "internalType": "uint256",
              "name": "id",
              "type": "uint256"
            },
            {
              "internalType": "string",
              "name": "name",
              "type": "string"
            },
            {
              "internalType": "string",
              "name": "compname",
              "type": "string"
            },
            {
              "internalType": "string",
              "name": "username",
              "type": "string"
            },
            {
              "internalType": "string",
              "name": "password",
              "type": "string"
            },
            {
              "internalType": "string",
              "name": "role",
              "type": "string"
            },
            {
              "internalType": "address payable",
              "name": "owner",
              "type": "address"
            }
          ],
          "indexed": false,
          "internalType": "struct UserRegistration.User[]",
          "name": "user",
          "type": "tuple[]"
        }
      ],
      "name": "UserValidated",
      "type": "event"
    },
    {
      "constant": true,
      "inputs": [],
      "name": "name",
      "outputs": [
        {
          "internalType": "string",
          "name": "",
          "type": "string"
        }
      ],
      "payable": false,
      "stateMutability": "view",
      "type": "function"
    },
    {
      "constant": true,
      "inputs": [],
      "name": "userCount",
      "outputs": [
        {
          "internalType": "uint256",
          "name": "",
          "type": "uint256"
        }
      ],
      "payable": false,
      "stateMutability": "view",
      "type": "function"
    },
    {
      "constant": true,
      "inputs": [
        {
          "internalType": "uint256",
          "name": "",
          "type": "uint256"
        }
      ],
      "name": "users",
      "outputs": [
        {
          "internalType": "uint256",
          "name": "id",
          "type": "uint256"
        },
        {
          "internalType": "string",
          "name": "name",
          "type": "string"
        },
        {
          "internalType": "string",
          "name": "compname",
          "type": "string"
        },
        {
          "internalType": "string",
          "name": "username",
          "type": "string"
        },
        {
          "internalType": "string",
          "name": "password",
          "type": "string"
        },
        {
          "internalType": "string",
          "name": "role",
          "type": "string"
        },
        {
          "internalType": "address payable",
          "name": "owner",
          "type": "address"
        }
      ],
      "payable": false,
      "stateMutability": "view",
      "type": "function"
    },
    {
      "constant": false,
      "inputs": [
        {
          "internalType": "string",
          "name": "_name",
          "type": "string"
        },
        {
          "internalType": "string",
          "name": "_compname",
          "type": "string"
        },
        {
          "internalType": "string",
          "name": "_username",
          "type": "string"
        },
        {
          "internalType": "string",
          "name": "_password",
          "type": "string"
        },
        {
          "internalType": "string",
          "name": "_role",
          "type": "string"
        },
        {
          "components": [
            {
              "internalType": "uint256",
              "name": "id",
              "type": "uint256"
            },
            {
              "internalType": "string",
              "name": "name",
              "type": "string"
            },
            {
              "internalType": "string",
              "name": "compname",
              "type": "string"
            },
            {
              "internalType": "string",
              "name": "username",
              "type": "string"
            },
            {
              "internalType": "string",
              "name": "password",
              "type": "string"
            },
            {
              "internalType": "string",
              "name": "role",
              "type": "string"
            },
            {
              "internalType": "address payable",
              "name": "owner",
              "type": "address"
            }
          ],
          "internalType": "struct UserRegistration.User[]",
          "name": "_user",
          "type": "tuple[]"
        }
      ],
      "name": "createUser",
      "outputs": [],
      "payable": false,
      "stateMutability": "nonpayable",
      "type": "function"
    },
    {
      "constant": false,
      "inputs": [
        {
          "internalType": "string",
          "name": "_username",
          "type": "string"
        },
        {
          "internalType": "string",
          "name": "_password",
          "type": "string"
        },
        {
          "internalType": "string",
          "name": "_role",
          "type": "string"
        },
        {
          "components": [
            {
              "internalType": "uint256",
              "name": "id",
              "type": "uint256"
            },
            {
              "internalType": "string",
              "name": "name",
              "type": "string"
            },
            {
              "internalType": "string",
              "name": "compname",
              "type": "string"
            },
            {
              "internalType": "string",
              "name": "username",
              "type": "string"
            },
            {
              "internalType": "string",
              "name": "password",
              "type": "string"
            },
            {
              "internalType": "string",
              "name": "role",
              "type": "string"
            },
            {
              "internalType": "address payable",
              "name": "owner",
              "type": "address"
            }
          ],
          "internalType": "struct UserRegistration.User[]",
          "name": "_user",
          "type": "tuple[]"
        }
      ],
      "name": "validateUser",
      "outputs": [],
      "payable": false,
      "stateMutability": "nonpayable",
      "type": "function"
    }
  ],
  "bytecode": "0x608060405260006001553480156200001657600080fd5b506040518060400160405280601181526020017f5573657220526567697374726174696f6e00000000000000000000000000000081525060009080519060200190620000649291906200006b565b506200011a565b828054600181600116156101000203166002900490600052602060002090601f016020900481019282601f10620000ae57805160ff1916838001178555620000df565b82800160010185558215620000df579182015b82811115620000de578251825591602001919060010190620000c1565b5b509050620000ee9190620000f2565b5090565b6200011791905b8082111562000113576000816000905550600101620000f9565b5090565b90565b61127b806200012a6000396000f3fe608060405234801561001057600080fd5b50600436106100575760003560e01c806306fdde031461005c57806307973ccf1461007a578063365b98b2146100985780636917eac2146100ce5780639d394765146100ea575b600080fd5b610064610106565b6040516100719190610e9b565b60405180910390f35b6100826101a4565b60405161008f9190610f1e565b60405180910390f35b6100b260048036036100ad9190810190610c4a565b6101aa565b6040516100c59796959493929190610fcb565b60405180910390f35b6100e860048036036100e39190810190610b31565b610504565b005b61010460048036036100ff9190810190610a6e565b6106ee565b005b60008054600181600116156101000203166002900480601f01602080910402602001604051908101604052809291908181526020018280546001816001161561010002031660029004801561019c5780601f106101715761010080835404028352916020019161019c565b820191906000526020600020905b81548152906001019060200180831161017f57829003601f168201915b505050505081565b60015481565b6002602052806000526040600020600091509050806000015490806001018054600181600116156101000203166002900480601f01602080910402602001604051908101604052809291908181526020018280546001816001161561010002031660029004801561025c5780601f106102315761010080835404028352916020019161025c565b820191906000526020600020905b81548152906001019060200180831161023f57829003601f168201915b505050505090806002018054600181600116156101000203166002900480601f0160208091040260200160405190810160405280929190818152602001828054600181600116156101000203166002900480156102fa5780601f106102cf576101008083540402835291602001916102fa565b820191906000526020600020905b8154815290600101906020018083116102dd57829003601f168201915b505050505090806003018054600181600116156101000203166002900480601f0160208091040260200160405190810160405280929190818152602001828054600181600116156101000203166002900480156103985780601f1061036d57610100808354040283529160200191610398565b820191906000526020600020905b81548152906001019060200180831161037b57829003601f168201915b505050505090806004018054600181600116156101000203166002900480601f0160208091040260200160405190810160405280929190818152602001828054600181600116156101000203166002900480156104365780601f1061040b57610100808354040283529160200191610436565b820191906000526020600020905b81548152906001019060200180831161041957829003601f168201915b505050505090806005018054600181600116156101000203166002900480601f0160208091040260200160405190810160405280929190818152602001828054600181600116156101000203166002900480156104d45780601f106104a9576101008083540402835291602001916104d4565b820191906000526020600020905b8154815290600101906020018083116104b757829003601f168201915b5050505050908060060160009054906101000a900473ffffffffffffffffffffffffffffffffffffffff16905087565b600086511161051257600080fd5b600085511161052057600080fd5b600084511161052e57600080fd5b600083511161053c57600080fd5b600082511161054a57600080fd5b6001600081548092919060010191905055506040518060e0016040528060015481526020018781526020018681526020018581526020018481526020018381526020013373ffffffffffffffffffffffffffffffffffffffff168152506002600060015481526020019081526020016000206000820151816000015560208201518160010190805190602001906105e292919061075b565b5060408201518160020190805190602001906105ff92919061075b565b50606082015181600301908051906020019061061c92919061075b565b50608082015181600401908051906020019061063992919061075b565b5060a082015181600501908051906020019061065692919061075b565b5060c08201518160060160006101000a81548173ffffffffffffffffffffffffffffffffffffffff021916908373ffffffffffffffffffffffffffffffffffffffff1602179055509050507f9e0c027e1bbf169b2dd6f3338132d51ae2d3836f617e70c13423008c8bb8ab976001548787878787336040516106de9796959493929190610f39565b60405180910390a1505050505050565b60008451116106fc57600080fd5b600083511161070a57600080fd5b600082511161071857600080fd5b7f27744688e5c4cafc3c40c27f147248b9927932c321220b36b6384f116d2da0ea8484848460405161074d9493929190610ebd565b60405180910390a150505050565b828054600181600116156101000203166002900490600052602060002090601f016020900481019282601f1061079c57805160ff19168380011785556107ca565b828001600101855582156107ca579182015b828111156107c95782518255916020019190600101906107ae565b5b5090506107d791906107db565b5090565b6107fd91905b808211156107f95760008160009055506001016107e1565b5090565b90565b60008135905061080f8161120a565b92915050565b600082601f83011261082657600080fd5b81356108396108348261108a565b61105d565b9150818183526020840193506020810190508360005b8381101561087f57813586016108658882610931565b84526020840193506020830192505060018101905061084f565b5050505092915050565b600082601f83011261089a57600080fd5b81356108ad6108a8826110b2565b61105d565b915080825260208301602083018583830111156108c957600080fd5b6108d48382846111b7565b50505092915050565b600082601f8301126108ee57600080fd5b81356109016108fc826110de565b61105d565b9150808252602083016020830185838301111561091d57600080fd5b6109288382846111b7565b50505092915050565b600060e0828403121561094357600080fd5b61094d60e061105d565b9050600061095d84828501610a59565b600083015250602082013567ffffffffffffffff81111561097d57600080fd5b61098984828501610889565b602083015250604082013567ffffffffffffffff8111156109a957600080fd5b6109b584828501610889565b604083015250606082013567ffffffffffffffff8111156109d557600080fd5b6109e184828501610889565b606083015250608082013567ffffffffffffffff811115610a0157600080fd5b610a0d84828501610889565b60808301525060a082013567ffffffffffffffff811115610a2d57600080fd5b610a3984828501610889565b60a08301525060c0610a4d84828501610800565b60c08301525092915050565b600081359050610a6881611221565b92915050565b60008060008060808587031215610a8457600080fd5b600085013567ffffffffffffffff811115610a9e57600080fd5b610aaa878288016108dd565b945050602085013567ffffffffffffffff811115610ac757600080fd5b610ad3878288016108dd565b935050604085013567ffffffffffffffff811115610af057600080fd5b610afc878288016108dd565b925050606085013567ffffffffffffffff811115610b1957600080fd5b610b2587828801610815565b91505092959194509250565b60008060008060008060c08789031215610b4a57600080fd5b600087013567ffffffffffffffff811115610b6457600080fd5b610b7089828a016108dd565b965050602087013567ffffffffffffffff811115610b8d57600080fd5b610b9989828a016108dd565b955050604087013567ffffffffffffffff811115610bb657600080fd5b610bc289828a016108dd565b945050606087013567ffffffffffffffff811115610bdf57600080fd5b610beb89828a016108dd565b935050608087013567ffffffffffffffff811115610c0857600080fd5b610c1489828a016108dd565b92505060a087013567ffffffffffffffff811115610c3157600080fd5b610c3d89828a01610815565b9150509295509295509295565b600060208284031215610c5c57600080fd5b6000610c6a84828501610a59565b91505092915050565b6000610c7f8383610dc5565b905092915050565b610c908161117b565b82525050565b610c9f8161117b565b82525050565b6000610cb08261111a565b610cba8185611148565b935083602082028501610ccc8561110a565b8060005b85811015610d085784840389528151610ce98582610c73565b9450610cf48361113b565b925060208a01995050600181019050610cd0565b50829750879550505050505092915050565b6000610d2582611130565b610d2f818561116a565b9350610d3f8185602086016111c6565b610d48816111f9565b840191505092915050565b6000610d5e82611125565b610d688185611159565b9350610d788185602086016111c6565b610d81816111f9565b840191505092915050565b6000610d9782611125565b610da1818561116a565b9350610db18185602086016111c6565b610dba816111f9565b840191505092915050565b600060e083016000830151610ddd6000860182610e7d565b5060208301518482036020860152610df58282610d53565b91505060408301518482036040860152610e0f8282610d53565b91505060608301518482036060860152610e298282610d53565b91505060808301518482036080860152610e438282610d53565b91505060a083015184820360a0860152610e5d8282610d53565b91505060c0830151610e7260c0860182610c87565b508091505092915050565b610e86816111ad565b82525050565b610e95816111ad565b82525050565b60006020820190508181036000830152610eb58184610d8c565b905092915050565b60006080820190508181036000830152610ed78187610d1a565b90508181036020830152610eeb8186610d1a565b90508181036040830152610eff8185610d1a565b90508181036060830152610f138184610ca5565b905095945050505050565b6000602082019050610f336000830184610e8c565b92915050565b600060e082019050610f4e600083018a610e8c565b8181036020830152610f608189610d1a565b90508181036040830152610f748188610d1a565b90508181036060830152610f888187610d1a565b90508181036080830152610f9c8186610d1a565b905081810360a0830152610fb08185610d1a565b9050610fbf60c0830184610c96565b98975050505050505050565b600060e082019050610fe0600083018a610e8c565b8181036020830152610ff28189610d8c565b905081810360408301526110068188610d8c565b9050818103606083015261101a8187610d8c565b9050818103608083015261102e8186610d8c565b905081810360a08301526110428185610d8c565b905061105160c0830184610c96565b98975050505050505050565b6000604051905081810181811067ffffffffffffffff8211171561108057600080fd5b8060405250919050565b600067ffffffffffffffff8211156110a157600080fd5b602082029050602081019050919050565b600067ffffffffffffffff8211156110c957600080fd5b601f19601f8301169050602081019050919050565b600067ffffffffffffffff8211156110f557600080fd5b601f19601f8301169050602081019050919050565b6000819050602082019050919050565b600081519050919050565b600081519050919050565b600081519050919050565b6000602082019050919050565b600082825260208201905092915050565b600082825260208201905092915050565b600082825260208201905092915050565b60006111868261118d565b9050919050565b600073ffffffffffffffffffffffffffffffffffffffff82169050919050565b6000819050919050565b82818337600083830152505050565b60005b838110156111e45780820151818401526020810190506111c9565b838111156111f3576000848401525b50505050565b6000601f19601f8301169050919050565b6112138161117b565b811461121e57600080fd5b50565b61122a816111ad565b811461123557600080fd5b5056fea365627a7a7231582097e0b87102b1b8b05d319563a4304f5c49d8c64a16ce5e02bd072d01e10a15006c6578706572696d656e74616cf564736f6c63430005100040",
  "source": "pragma solidity ^0.5.16;\npragma experimental ABIEncoderV2;\n\ncontract UserRegistration {\n    string public name;\n    uint public userCount = 0;\n    mapping(uint => User) public users;\n\n    struct User {\n        uint id;\n        string name;\n        string compname;\n        string username;\n        string password;\n        string role;\n        address payable owner;\n    }\n\n    event UserCreated(\n        uint id,\n        string name,\n        string compname,\n        string username,\n        string password,\n        \n        string role,\n        address payable owner\n    );\n    event UserValidated(\n      \n        string username,\n        string password,\n        \n        string role,\n        User[] user\n\n    );\n\n    \n    constructor() public {\n        name = \"User Registration\";\n    }\n\n    function createUser(string memory _name, string memory _compname, string memory _username,string memory _password,string memory _role, User[] memory _user) public {\n        // Require a valid name\n        require(bytes(_name).length > 0);\n        // Require a valid company name\n        require(bytes(_compname).length > 0);\n        // Require a valid username\n       require(bytes(_username).length > 0);\n       // Require a valid password\n       require(bytes(_password).length > 0);\n       // Require a valid role\n       require(bytes(_role).length > 0);\n        // Increment product count\n        userCount ++;\n        // Create the product\n        users[userCount] = User(userCount, _name, _compname, _username, _password, _role, msg.sender);\n        // Trigger an event\n        emit UserCreated(userCount, _name, _compname, _username, _password, _role, msg.sender);\n    }\n\n    function validateUser(string memory _username,string memory _password,string memory _role, User[] memory _user )public{\n        \n        // Require a valid username\n       require(bytes(_username).length > 0);\n       // Require a valid password\n       require(bytes(_password).length > 0);\n       // Require a valid role\n       require(bytes(_role).length > 0);\n        \n\n       \n       emit UserValidated(_username, _password, _role,_user);\n    }\n\n\n\n\n\n\n\n\n\n}\n",
  "sourcePath": "E:\\Project\\Food Tracking\\src\\contracts\\UserRegistration.sol",
  "compiler": {
    "name": "solc",
    "version": "0.5.16+commit.9c3226ce.Emscripten.clang"
  },
  "schemaVersion": "3.4.2",
  "updatedAt": "2021-08-20T05:35:56.630Z",
  "devdoc": {
    "methods": {}
  },
  "userdoc": {
    "methods": {}
  }
}